{
  "_format": "hh-sol-artifact-1",
  "contractName": "L2ToL2CrossDomainMessenger",
  "sourceName": "contracts/L2ToL2CrossDomainMessenger.sol",
  "abi": [
    {
      "inputs": [],
      "name": "EventPayloadNotSentMessage",
      "type": "error"
    },
    {
      "inputs": [],
      "name": "IdOriginNotL2ToL2CrossDomainMessenger",
      "type": "error"
    },
    {
      "inputs": [],
      "name": "InvalidMessage",
      "type": "error"
    },
    {
      "inputs": [],
      "name": "MessageAlreadyRelayed",
      "type": "error"
    },
    {
      "inputs": [],
      "name": "MessageDestinationNotRelayChain",
      "type": "error"
    },
    {
      "inputs": [],
      "name": "MessageDestinationSameChain",
      "type": "error"
    },
    {
      "inputs": [],
      "name": "MessageTargetL2ToL2CrossDomainMessenger",
      "type": "error"
    },
    {
      "inputs": [],
      "name": "NotEntered",
      "type": "error"
    },
    {
      "inputs": [],
      "name": "ReentrantCall",
      "type": "error"
    },
    {
      "anonymous": false,
      "inputs": [
        {
          "indexed": true,
          "internalType": "uint256",
          "name": "source",
          "type": "uint256"
        },
        {
          "indexed": true,
          "internalType": "uint256",
          "name": "messageNonce",
          "type": "uint256"
        },
        {
          "indexed": true,
          "internalType": "bytes32",
          "name": "messageHash",
          "type": "bytes32"
        },
        {
          "indexed": false,
          "internalType": "bytes32",
          "name": "returnDataHash",
          "type": "bytes32"
        }
      ],
      "name": "RelayedMessage",
      "type": "event"
    },
    {
      "anonymous": false,
      "inputs": [
        {
          "indexed": true,
          "internalType": "uint256",
          "name": "destination",
          "type": "uint256"
        },
        {
          "indexed": true,
          "internalType": "address",
          "name": "target",
          "type": "address"
        },
        {
          "indexed": true,
          "internalType": "uint256",
          "name": "messageNonce",
          "type": "uint256"
        },
        {
          "indexed": false,
          "internalType": "address",
          "name": "sender",
          "type": "address"
        },
        {
          "indexed": false,
          "internalType": "bytes",
          "name": "message",
          "type": "bytes"
        }
      ],
      "name": "SentMessage",
      "type": "event"
    },
    {
      "inputs": [],
      "name": "crossDomainMessageContext",
      "outputs": [
        {
          "internalType": "address",
          "name": "sender_",
          "type": "address"
        },
        {
          "internalType": "uint256",
          "name": "source_",
          "type": "uint256"
        }
      ],
      "stateMutability": "view",
      "type": "function"
    },
    {
      "inputs": [],
      "name": "crossDomainMessageSender",
      "outputs": [
        {
          "internalType": "address",
          "name": "sender_",
          "type": "address"
        }
      ],
      "stateMutability": "view",
      "type": "function"
    },
    {
      "inputs": [],
      "name": "crossDomainMessageSource",
      "outputs": [
        {
          "internalType": "uint256",
          "name": "source_",
          "type": "uint256"
        }
      ],
      "stateMutability": "view",
      "type": "function"
    },
    {
      "inputs": [],
      "name": "messageNonce",
      "outputs": [
        {
          "internalType": "uint256",
          "name": "",
          "type": "uint256"
        }
      ],
      "stateMutability": "view",
      "type": "function"
    },
    {
      "inputs": [],
      "name": "messageVersion",
      "outputs": [
        {
          "internalType": "uint16",
          "name": "",
          "type": "uint16"
        }
      ],
      "stateMutability": "view",
      "type": "function"
    },
    {
      "inputs": [
        {
          "components": [
            {
              "internalType": "address",
              "name": "origin",
              "type": "address"
            },
            {
              "internalType": "uint256",
              "name": "blockNumber",
              "type": "uint256"
            },
            {
              "internalType": "uint256",
              "name": "logIndex",
              "type": "uint256"
            },
            {
              "internalType": "uint256",
              "name": "timestamp",
              "type": "uint256"
            },
            {
              "internalType": "uint256",
              "name": "chainId",
              "type": "uint256"
            }
          ],
          "internalType": "struct Identifier",
          "name": "_id",
          "type": "tuple"
        },
        {
          "internalType": "bytes",
          "name": "_sentMessage",
          "type": "bytes"
        }
      ],
      "name": "relayMessage",
      "outputs": [
        {
          "internalType": "bytes",
          "name": "returnData_",
          "type": "bytes"
        }
      ],
      "stateMutability": "payable",
      "type": "function"
    },
    {
      "inputs": [
        {
          "internalType": "uint256",
          "name": "_destination",
          "type": "uint256"
        },
        {
          "internalType": "uint256",
          "name": "_nonce",
          "type": "uint256"
        },
        {
          "internalType": "address",
          "name": "_sender",
          "type": "address"
        },
        {
          "internalType": "address",
          "name": "_target",
          "type": "address"
        },
        {
          "internalType": "bytes",
          "name": "_message",
          "type": "bytes"
        }
      ],
      "name": "resendMessage",
      "outputs": [
        {
          "internalType": "bytes32",
          "name": "messageHash_",
          "type": "bytes32"
        }
      ],
      "stateMutability": "nonpayable",
      "type": "function"
    },
    {
      "inputs": [
        {
          "internalType": "uint256",
          "name": "_destination",
          "type": "uint256"
        },
        {
          "internalType": "address",
          "name": "_target",
          "type": "address"
        },
        {
          "internalType": "bytes",
          "name": "_message",
          "type": "bytes"
        }
      ],
      "name": "sendMessage",
      "outputs": [
        {
          "internalType": "bytes32",
          "name": "messageHash_",
          "type": "bytes32"
        }
      ],
      "stateMutability": "nonpayable",
      "type": "function"
    },
    {
      "inputs": [
        {
          "internalType": "uint256",
          "name": "",
          "type": "uint256"
        }
      ],
      "name": "sentMessages",
      "outputs": [
        {
          "internalType": "bytes32",
          "name": "",
          "type": "bytes32"
        }
      ],
      "stateMutability": "view",
      "type": "function"
    },
    {
      "inputs": [
        {
          "internalType": "bytes32",
          "name": "",
          "type": "bytes32"
        }
      ],
      "name": "successfulMessages",
      "outputs": [
        {
          "internalType": "bool",
          "name": "",
          "type": "bool"
        }
      ],
      "stateMutability": "view",
      "type": "function"
    },
    {
      "inputs": [],
      "name": "version",
      "outputs": [
        {
          "internalType": "string",
          "name": "",
          "type": "string"
        }
      ],
      "stateMutability": "view",
      "type": "function"
    }
  ],
  "bytecode": "0x6080604052348015600e575f80fd5b50610de68061001c5f395ff3fe60806040526004361061009a575f3560e01c80637056f41f116100625780637056f41f146101735780637936cbee146101925780638d1d298f146101c5578063b1b1b209146101d8578063bc294d7d14610216578063ecc7042814610241575f80fd5b8063247944621461009e57806338ffde18146100c557806352617f3c146100f157806354fd4d50146101175780636b0c3c5e14610154575b5f80fd5b3480156100a9575f80fd5b506100b261025e565b6040519081526020015b60405180910390f35b3480156100d0575f80fd5b506100d96102b1565b6040516001600160a01b0390911681526020016100bc565b3480156100fc575f80fd5b506101045f81565b60405161ffff90911681526020016100bc565b348015610122575f80fd5b50610147604051806040016040528060058152602001640312e332e360dc1b81525081565b6040516100bc9190610962565b34801561015f575f80fd5b506100b261016e3660046109d7565b610304565b34801561017e575f80fd5b506100b261018d366004610a4e565b6103c9565b34801561019d575f80fd5b506101a6610515565b604080516001600160a01b0390931683526020830191909152016100bc565b6101476101d3366004610aa6565b61058d565b3480156101e3575f80fd5b506102066101f2366004610afc565b5f6020819052908152604090205460ff1681565b60405190151581526020016100bc565b348015610221575f80fd5b506100b2610230366004610afc565b60026020525f908152604090205481565b34801561024c575f80fd5b506001546001600160f01b03166100b2565b5f5f80516020610d918339815191525c61028b57604051635e51ad7b60e11b815260040160405180910390fd5b507f711dfa3259c842fffc17d6e1f1e0fc5927756133a2345ca56b4cb8178589fee75c90565b5f5f80516020610d918339815191525c6102de57604051635e51ad7b60e11b815260040160405180910390fd5b507fb83444d07072b122e2e72a669ce32857d892345c19856f4e7142d06a167ab3f35c90565b5f610348874688888888888080601f0160208091040260200160405190810160405280939291908181526020018383808284375f920191909152506107fc92505050565b5f87815260026020526040902054909150811461037857604051636eca2e4b60e01b815260040160405180910390fd5b85846001600160a01b0316887f382409ac69001e11931a28435afef442cbfd20d9891907e8fa373ba7d351f3208887876040516103b793929190610b13565b60405180910390a49695505050505050565b5f4685036103ea57604051638ed9a95d60e01b815260040160405180910390fd5b6022602160991b01196001600160a01b0385160161041b57604051634faa250960e01b815260040160405180910390fd5b5f61042e6001546001600160f01b031690565b9050610473864683338989898080601f0160208091040260200160405190810160405280939291908181526020018383808284375f920191909152506107fc92505050565b5f828152600260205260408120829055600180549294506001600160f01b0390921691906104a083610b52565b91906101000a8154816001600160f01b0302191690836001600160f01b031602179055505080856001600160a01b0316877f382409ac69001e11931a28435afef442cbfd20d9891907e8fa373ba7d351f32033888860405161050493929190610b13565b60405180910390a450949350505050565b5f805f80516020610d918339815191525c61054357604051635e51ad7b60e11b815260040160405180910390fd5b50507fb83444d07072b122e2e72a669ce32857d892345c19856f4e7142d06a167ab3f35c907f711dfa3259c842fffc17d6e1f1e0fc5927756133a2345ca56b4cb8178589fee75c90565b60605f80516020610d918339815191525c156105bc576040516306fda65d60e31b815260040160405180910390fd5b60015f80516020610d918339815191525d6023602160991b016105e26020860186610b8b565b6001600160a01b03161461060957604051637987c15760e01b815260040160405180910390fd5b6022602160991b016001600160a01b031663ab4d6f75858585604051610630929190610ba6565b6040519081900381206001600160e01b031960e085901b1682526106579291600401610bb5565b5f604051808303815f87803b15801561066e575f80fd5b505af1158015610680573d5f803e3d5ffd5b505050505f805f805f610693888861083a565b945094509450945094504685146106bd576040516331ac221160e01b815260040160405180910390fd5b60808901355f6106d1878387878a886107fc565b5f8181526020819052604090205490915060ff161561070357604051639ca9480b60e01b815260040160405180910390fd5b5f818152602081905260409020805460ff1916600117905561072582856108ea565b5f866001600160a01b0316348560405161073f9190610c01565b5f6040518083038185875af1925050503d805f8114610779576040519150601f19603f3d011682016040523d82523d5f602084013e61077e565b606091505b50995090508061079057885189602001fd5b8186847fc270d73e26d2d39dee7ef92093555927e344e243415547ecc350b2b5385b68a28c805190602001206040516107cb91815260200190565b60405180910390a46107dd5f806108ea565b50505050505050505f5f80516020610d918339815191525d9392505050565b5f86868686868660405160200161081896959493929190610c17565b6040516020818303038152906040528051906020012090509695505050505050565b5f80808060608161084e602082898b610c62565b81019061085b9190610afc565b90507f382409ac69001e11931a28435afef442cbfd20d9891907e8fa373ba7d351f320811461089d57604051636f8f5ac360e11b815260040160405180910390fd5b6108ab60806020898b610c62565b8101906108b89190610c89565b919750955093506108cc876080818b610c62565b8101906108d99190610cd2565b969995985093965092949392505050565b817f711dfa3259c842fffc17d6e1f1e0fc5927756133a2345ca56b4cb8178589fee75d807fb83444d07072b122e2e72a669ce32857d892345c19856f4e7142d06a167ab3f35d5050565b5f81518084528060208401602086015e5f602082860101526020601f19601f83011685010191505092915050565b602081525f6109746020830184610934565b9392505050565b6001600160a01b038116811461098f575f80fd5b50565b5f8083601f8401126109a2575f80fd5b50813567ffffffffffffffff8111156109b9575f80fd5b6020830191508360208285010111156109d0575f80fd5b9250929050565b5f805f805f8060a087890312156109ec575f80fd5b86359550602087013594506040870135610a058161097b565b93506060870135610a158161097b565b9250608087013567ffffffffffffffff811115610a30575f80fd5b610a3c89828a01610992565b979a9699509497509295939492505050565b5f805f8060608587031215610a61575f80fd5b843593506020850135610a738161097b565b9250604085013567ffffffffffffffff811115610a8e575f80fd5b610a9a87828801610992565b95989497509550505050565b5f805f83850360c0811215610ab9575f80fd5b60a0811215610ac6575f80fd5b5083925060a084013567ffffffffffffffff811115610ae3575f80fd5b610aef86828701610992565b9497909650939450505050565b5f60208284031215610b0c575f80fd5b5035919050565b6001600160a01b03841681526040602082018190528101829052818360608301375f818301606090810191909152601f909201601f1916010192915050565b5f6001600160f01b038281166002600160f01b03198101610b8157634e487b7160e01b5f52601160045260245ffd5b6001019392505050565b5f60208284031215610b9b575f80fd5b81356109748161097b565b818382375f9101908152919050565b60c081018335610bc48161097b565b6001600160a01b031682526020848101359083015260408085013590830152606080850135908301526080938401359382019390935260a0015290565b5f82518060208501845e5f920191825250919050565b86815260208101869052604081018590526001600160a01b0384811660608301528316608082015260c060a082018190525f90610c5690830184610934565b98975050505050505050565b5f8085851115610c70575f80fd5b83861115610c7c575f80fd5b5050820193919092039150565b5f805f60608486031215610c9b575f80fd5b833592506020840135610cad8161097b565b929592945050506040919091013590565b634e487b7160e01b5f52604160045260245ffd5b5f8060408385031215610ce3575f80fd5b8235610cee8161097b565b9150602083013567ffffffffffffffff80821115610d0a575f80fd5b818501915085601f830112610d1d575f80fd5b813581811115610d2f57610d2f610cbe565b604051601f8201601f19908116603f01168101908382118183101715610d5757610d57610cbe565b81604052828152886020848701011115610d6f575f80fd5b826020860160208301375f602084830101528095505050505050925092905056fef13569814868ede994184d5a425471fb19e869768a33421cb701a2ba3d420c0aa2646970667358221220777b78f449b8b8f4389432b82541f1ecbf51b3f0821412cec416bbc3edc9ee1c64736f6c63430008190033",
  "linkReferences": {},
  "deployedLinkReferences": {}
}