{
  "_format": "hh-sol-artifact-1",
  "contractName": "MessageReceiver",
  "sourceName": "contracts/MessageReceiver.sol",
  "abi": [
    {
      "anonymous": false,
      "inputs": [
        {
          "indexed": false,
          "internalType": "string",
          "name": "message",
          "type": "string"
        },
        {
          "indexed": true,
          "internalType": "address",
          "name": "sender",
          "type": "address"
        }
      ],
      "name": "MessageReceived",
      "type": "event"
    },
    {
      "inputs": [],
      "name": "getLastMessage",
      "outputs": [
        {
          "internalType": "string",
          "name": "",
          "type": "string"
        }
      ],
      "stateMutability": "view",
      "type": "function"
    },
    {
      "inputs": [],
      "name": "getMessageCount",
      "outputs": [
        {
          "internalType": "uint256",
          "name": "",
          "type": "uint256"
        }
      ],
      "stateMutability": "view",
      "type": "function"
    },
    {
      "inputs": [],
      "name": "lastMessage",
      "outputs": [
        {
          "internalType": "string",
          "name": "",
          "type": "string"
        }
      ],
      "stateMutability": "view",
      "type": "function"
    },
    {
      "inputs": [],
      "name": "lastSender",
      "outputs": [
        {
          "internalType": "address",
          "name": "",
          "type": "address"
        }
      ],
      "stateMutability": "view",
      "type": "function"
    },
    {
      "inputs": [],
      "name": "messageCount",
      "outputs": [
        {
          "internalType": "uint256",
          "name": "",
          "type": "uint256"
        }
      ],
      "stateMutability": "view",
      "type": "function"
    },
    {
      "inputs": [
        {
          "internalType": "string",
          "name": "_message",
          "type": "string"
        }
      ],
      "name": "receiveMessage",
      "outputs": [],
      "stateMutability": "nonpayable",
      "type": "function"
    }
  ],
  "bytecode": "0x6080604052348015600e575f80fd5b506104ea8061001c5f395ff3fe608060405234801561000f575f80fd5b5060043610610060575f3560e01c8063256fec88146100645780632f049bf31461009457806331933916146100a957806332970710146100bb5780633dbcc8d1146100d0578063526bf76e146100d9575b5f80fd5b600254610077906001600160a01b031681565b6040516001600160a01b0390911681526020015b60405180910390f35b6100a76100a236600461026f565b6100e1565b005b6001545b60405190815260200161008b565b6100c3610155565b60405161008b91906102db565b6100ad60015481565b6100c36101e0565b5f6100ed8284836103a8565b5060018054905f6100fd83610462565b9091555050600280546001600160a01b031916339081179091556040517f8333e88caf40b202eb05ad75b613f36815eaf5457fc16b08e0412d1a698f25e0906101499085908590610486565b60405180910390a25050565b5f805461016190610324565b80601f016020809104026020016040519081016040528092919081815260200182805461018d90610324565b80156101d85780601f106101af576101008083540402835291602001916101d8565b820191905f5260205f20905b8154815290600101906020018083116101bb57829003601f168201915b505050505081565b60605f80546101ee90610324565b80601f016020809104026020016040519081016040528092919081815260200182805461021a90610324565b80156102655780601f1061023c57610100808354040283529160200191610265565b820191905f5260205f20905b81548152906001019060200180831161024857829003601f168201915b5050505050905090565b5f8060208385031215610280575f80fd5b823567ffffffffffffffff80821115610297575f80fd5b818501915085601f8301126102aa575f80fd5b8135818111156102b8575f80fd5b8660208285010111156102c9575f80fd5b60209290920196919550909350505050565b602081525f82518060208401528060208501604085015e5f604082850101526040601f19601f83011684010191505092915050565b634e487b7160e01b5f52604160045260245ffd5b600181811c9082168061033857607f821691505b60208210810361035657634e487b7160e01b5f52602260045260245ffd5b50919050565b601f8211156103a357805f5260205f20601f840160051c810160208510156103815750805b601f840160051c820191505b818110156103a0575f815560010161038d565b50505b505050565b67ffffffffffffffff8311156103c0576103c0610310565b6103d4836103ce8354610324565b8361035c565b5f601f841160018114610405575f85156103ee5750838201355b5f19600387901b1c1916600186901b1783556103a0565b5f83815260208120601f198716915b828110156104345786850135825560209485019460019092019101610414565b5086821015610450575f1960f88860031b161c19848701351681555b505060018560011b0183555050505050565b5f6001820161047f57634e487b7160e01b5f52601160045260245ffd5b5060010190565b60208152816020820152818360408301375f818301604090810191909152601f909201601f1916010191905056fea26469706673582212200fafcbad29c2fa1c4266a2d8e5bd4e2436f0837c56197468b0cf3e9d5eeda8c764736f6c63430008190033",
  "linkReferences": {},
  "deployedLinkReferences": {}
}